{
  "_format": "hh-sol-artifact-1",
  "contractName": "TournamentFactory",
  "sourceName": "srcs/contracts/TournamentFactory.sol",
  "abi": [
    {
      "anonymous": false,
      "inputs": [
        {
          "indexed": false,
          "internalType": "uint256",
          "name": "tournamentId",
          "type": "uint256"
        },
        {
          "indexed": false,
          "internalType": "address",
          "name": "tournamentAddress",
          "type": "address"
        }
      ],
      "name": "TournamentCreated",
      "type": "event"
    },
    {
      "inputs": [
        {
          "internalType": "uint256",
          "name": "tournamentId",
          "type": "uint256"
        }
      ],
      "name": "deployTournament",
      "outputs": [],
      "stateMutability": "nonpayable",
      "type": "function"
    },
    {
      "inputs": [
        {
          "internalType": "uint256",
          "name": "tournamentId",
          "type": "uint256"
        }
      ],
      "name": "getTournament",
      "outputs": [
        {
          "internalType": "address",
          "name": "",
          "type": "address"
        }
      ],
      "stateMutability": "view",
      "type": "function"
    },
    {
      "inputs": [
        {
          "internalType": "uint256",
          "name": "",
          "type": "uint256"
        }
      ],
      "name": "tournaments",
      "outputs": [
        {
          "internalType": "address",
          "name": "",
          "type": "address"
        }
      ],
      "stateMutability": "view",
      "type": "function"
    }
  ],
  "bytecode": "0x6080604052348015600f57600080fd5b506115008061001f6000396000f3fe608060405234801561001057600080fd5b50600436106100415760003560e01c80631a5bd7fc146100465780637503e1b714610076578063cc26394a146100a6575b600080fd5b610060600480360381019061005b919061046c565b6100c2565b60405161006d91906104da565b60405180910390f35b610090600480360381019061008b919061046c565b6100fe565b60405161009d91906104da565b60405180910390f35b6100c060048036038101906100bb919061046c565b610131565b005b600080600083815260200190815260200160002060009054906101000a900473ffffffffffffffffffffffffffffffffffffffff169050919050565b60006020528060005260406000206000915054906101000a900473ffffffffffffffffffffffffffffffffffffffff1681565b6101706040518060400160405280601e81526020017f4465706c6f79696e6720746f75726e616d656e7420776974682049443a2000008152508261029c565b600060405161017e9061041a565b604051809103906000f08015801561019a573d6000803e3d6000fd5b5090508060008084815260200190815260200160002060006101000a81548173ffffffffffffffffffffffffffffffffffffffff021916908373ffffffffffffffffffffffffffffffffffffffff16021790555061022d6040518060400160405280602081526020017f546f75726e616d656e74206465706c6f79656420617420616464726573733a2081525082610338565b7fb65ca7bac8eb3acf5e536022d4e7cf17c862c1fd36d11b20dd253da7569b671b8260008085815260200190815260200160002060009054906101000a900473ffffffffffffffffffffffffffffffffffffffff16604051610290929190610504565b60405180910390a15050565b61033482826040516024016102b29291906105bd565b6040516020818303038152906040527fb60e72cc000000000000000000000000000000000000000000000000000000007bffffffffffffffffffffffffffffffffffffffffffffffffffffffff19166020820180517bffffffffffffffffffffffffffffffffffffffffffffffffffffffff83818316178352505050506103d4565b5050565b6103d0828260405160240161034e9291906105ed565b6040516020818303038152906040527f319af333000000000000000000000000000000000000000000000000000000007bffffffffffffffffffffffffffffffffffffffffffffffffffffffff19166020820180517bffffffffffffffffffffffffffffffffffffffffffffffffffffffff83818316178352505050506103d4565b5050565b6103eb816103e36103ee61040f565b63ffffffff16565b50565b60006a636f6e736f6c652e6c6f679050600080835160208501845afa505050565b610427819050919050565b610e7e8061064d83390190565b61042f61061d565b565b600080fd5b6000819050919050565b61044981610436565b811461045457600080fd5b50565b60008135905061046681610440565b92915050565b60006020828403121561048257610481610431565b5b600061049084828501610457565b91505092915050565b600073ffffffffffffffffffffffffffffffffffffffff82169050919050565b60006104c482610499565b9050919050565b6104d4816104b9565b82525050565b60006020820190506104ef60008301846104cb565b92915050565b6104fe81610436565b82525050565b600060408201905061051960008301856104f5565b61052660208301846104cb565b9392505050565b600081519050919050565b600082825260208201905092915050565b60005b8381101561056757808201518184015260208101905061054c565b60008484015250505050565b6000601f19601f8301169050919050565b600061058f8261052d565b6105998185610538565b93506105a9818560208601610549565b6105b281610573565b840191505092915050565b600060408201905081810360008301526105d78185610584565b90506105e660208301846104f5565b9392505050565b600060408201905081810360008301526106078185610584565b905061061660208301846104cb565b9392505050565b7f4e487b7100000000000000000000000000000000000000000000000000000000600052605160045260246000fdfe608060405234801561001057600080fd5b506100556040518060400160405280600b81526020017f636f6e7374727563746f7200000000000000000000000000000000000000000081525061008460201b60201c565b60008060006101000a81548160ff0219169083600281111561007a57610079610184565b5b0217905550610294565b610120816040516024016100989190610243565b6040516020818303038152906040527f41304fac000000000000000000000000000000000000000000000000000000007bffffffffffffffffffffffffffffffffffffffffffffffffffffffff19166020820180517bffffffffffffffffffffffffffffffffffffffffffffffffffffffff838183161783525050505061012360201b60201c565b50565b6101448161013f61014760201b61077f1761016860201b60201c565b60201c565b50565b60006a636f6e736f6c652e6c6f679050600080835160208501845afa505050565b61017a60201b6107a017819050919050565b610182610265565b565b7f4e487b7100000000000000000000000000000000000000000000000000000000600052602160045260246000fd5b600081519050919050565b600082825260208201905092915050565b60005b838110156101ed5780820151818401526020810190506101d2565b60008484015250505050565b6000601f19601f8301169050919050565b6000610215826101b3565b61021f81856101be565b935061022f8185602086016101cf565b610238816101f9565b840191505092915050565b6000602082019050818103600083015261025d818461020a565b905092915050565b7f4e487b7100000000000000000000000000000000000000000000000000000000600052605160045260246000fd5b610bdb806102a36000396000f3fe608060405234801561001057600080fd5b50600436106100885760003560e01c8063c19d93fb1161005b578063c19d93fb14610126578063cfe186b214610144578063d56b288914610160578063ffde0c741461016a57610088565b8063117a5b901461008d57806348e837b9146100be57806396325576146100da578063a9656e6f146100f6575b600080fd5b6100a760048036038101906100a291906107e5565b61019a565b6040516100b59291906108a4565b60405180910390f35b6100d860048036038101906100d391906107e5565b6101d8565b005b6100f460048036038101906100ef91906108cd565b610326565b005b610110600480360381019061010b91906108cd565b6104d0565b60405161011d919061091c565b60405180910390f35b61012e61056c565b60405161013b9190610937565b60405180910390f35b61015e600480360381019061015991906107e5565b61057d565b005b610168610648565b005b610184600480360381019061017f91906107e5565b6106e8565b6040516101919190610937565b60405180910390f35b60016020528060005260406000206000915090508060000160009054906101000a900460ff16908060000160019054906101000a900460ff16905082565b600060028111156101ec576101eb610812565b5b60008054906101000a900460ff16600281111561020c5761020b610812565b5b1461024c576040517f08c379a0000000000000000000000000000000000000000000000000000000008152600401610243906109af565b60405180910390fd5b600015156001600083815260200190815260200160002060000160019054906101000a900460ff161515146102b6576040517f08c379a00000000000000000000000000000000000000000000000000000000081526004016102ad90610a1b565b60405180910390fd5b600180600083815260200190815260200160002060000160016101000a81548160ff02191690831515021790555060006001600083815260200190815260200160002060000160006101000a81548160ff0219169083600281111561031e5761031d610812565b5b021790555050565b600115156001600084815260200190815260200160002060000160019054906101000a900460ff16151514610390576040517f08c379a000000000000000000000000000000000000000000000000000000000815260040161038790610a87565b60405180910390fd5b600060028111156103a4576103a3610812565b5b60008054906101000a900460ff1660028111156103c4576103c3610812565b5b14610404576040517f08c379a00000000000000000000000000000000000000000000000000000000081526004016103fb906109af565b60405180910390fd5b6000600281111561041857610417610812565b5b6001600084815260200190815260200160002060000160009054906101000a900460ff16600281111561044e5761044d610812565b5b1461048e576040517f08c379a000000000000000000000000000000000000000000000000000000000815260040161048590610af3565b60405180910390fd5b6001806000848152602001908152602001600020600101600083815260200190815260200160002060008282546104c59190610b42565b925050819055505050565b6000600115156001600085815260200190815260200160002060000160019054906101000a900460ff1615151461053c576040517f08c379a000000000000000000000000000000000000000000000000000000000815260040161053390610a87565b60405180910390fd5b60016000848152602001908152602001600020600101600083815260200190815260200160002054905092915050565b60008054906101000a900460ff1681565b6000600281111561059157610590610812565b5b6001600083815260200190815260200160002060000160009054906101000a900460ff1660028111156105c7576105c6610812565b5b14610607576040517f08c379a00000000000000000000000000000000000000000000000000000000081526004016105fe90610af3565b60405180910390fd5b600180600083815260200190815260200160002060000160006101000a81548160ff021916908360028111156106405761063f610812565b5b021790555050565b6000600281111561065c5761065b610812565b5b60008054906101000a900460ff16600281111561067c5761067b610812565b5b146106bc576040517f08c379a00000000000000000000000000000000000000000000000000000000081526004016106b3906109af565b60405180910390fd5b60016000806101000a81548160ff021916908360028111156106e1576106e0610812565b5b0217905550565b6000600115156001600084815260200190815260200160002060000160019054906101000a900460ff16151514610754576040517f08c379a000000000000000000000000000000000000000000000000000000000815260040161074b90610a87565b60405180910390fd5b6001600083815260200190815260200160002060000160009054906101000a900460ff169050919050565b60006a636f6e736f6c652e6c6f679050600080835160208501845afa505050565b6107a8610b76565b565b600080fd5b6000819050919050565b6107c2816107af565b81146107cd57600080fd5b50565b6000813590506107df816107b9565b92915050565b6000602082840312156107fb576107fa6107aa565b5b6000610809848285016107d0565b91505092915050565b7f4e487b7100000000000000000000000000000000000000000000000000000000600052602160045260246000fd5b6003811061085257610851610812565b5b50565b600081905061086382610841565b919050565b600061087382610855565b9050919050565b61088381610868565b82525050565b60008115159050919050565b61089e81610889565b82525050565b60006040820190506108b9600083018561087a565b6108c66020830184610895565b9392505050565b600080604083850312156108e4576108e36107aa565b5b60006108f2858286016107d0565b9250506020610903858286016107d0565b9150509250929050565b610916816107af565b82525050565b6000602082019050610931600083018461090d565b92915050565b600060208201905061094c600083018461087a565b92915050565b600082825260208201905092915050565b7f546f75726e616d656e742069732066696e697368656400000000000000000000600082015250565b6000610999601683610952565b91506109a482610963565b602082019050919050565b600060208201905081810360008301526109c88161098c565b9050919050565b7f47616d6520616c72656164792065786973747300000000000000000000000000600082015250565b6000610a05601383610952565b9150610a10826109cf565b602082019050919050565b60006020820190508181036000830152610a34816109f8565b9050919050565b7f47616d65206e6f7420666f756e64000000000000000000000000000000000000600082015250565b6000610a71600e83610952565b9150610a7c82610a3b565b602082019050919050565b60006020820190508181036000830152610aa081610a64565b9050919050565b7f47616d652069732066696e697368656400000000000000000000000000000000600082015250565b6000610add601083610952565b9150610ae882610aa7565b602082019050919050565b60006020820190508181036000830152610b0c81610ad0565b9050919050565b7f4e487b7100000000000000000000000000000000000000000000000000000000600052601160045260246000fd5b6000610b4d826107af565b9150610b58836107af565b9250828201905080821115610b7057610b6f610b13565b5b92915050565b7f4e487b7100000000000000000000000000000000000000000000000000000000600052605160045260246000fdfea26469706673582212205c90ad925fb90eb949843bb90ee0a6938c7816b2e7edb4c49be12c56b912a42d64736f6c634300081c0033a2646970667358221220a3566feb2da5059f2d843e9238d792c1be42d6d1c4f59355dbadea22a25600b064736f6c634300081c0033",
  "linkReferences": {},
  "deployedLinkReferences": {}
}