{
  "_format": "hh-sol-artifact-1",
  "contractName": "Tournament",
  "sourceName": "srcs/contracts/Tournament.sol",
  "abi": [
    {
      "inputs": [],
      "stateMutability": "nonpayable",
      "type": "constructor"
    },
    {
      "anonymous": false,
      "inputs": [
        {
          "indexed": false,
          "internalType": "uint256",
          "name": "",
          "type": "uint256"
        }
      ],
      "name": "GameFinished",
      "type": "event"
    },
    {
      "inputs": [
        {
          "internalType": "uint256",
          "name": "gameId",
          "type": "uint256"
        },
        {
          "internalType": "uint256",
          "name": "id",
          "type": "uint256"
        }
      ],
      "name": "addPointToPlayer",
      "outputs": [],
      "stateMutability": "nonpayable",
      "type": "function"
    },
    {
      "inputs": [
        {
          "internalType": "uint256",
          "name": "gameId",
          "type": "uint256"
        }
      ],
      "name": "createGame",
      "outputs": [],
      "stateMutability": "nonpayable",
      "type": "function"
    },
    {
      "inputs": [],
      "name": "finish",
      "outputs": [],
      "stateMutability": "nonpayable",
      "type": "function"
    },
    {
      "inputs": [
        {
          "internalType": "uint256",
          "name": "gameId",
          "type": "uint256"
        }
      ],
      "name": "finishGame",
      "outputs": [],
      "stateMutability": "nonpayable",
      "type": "function"
    },
    {
      "inputs": [
        {
          "internalType": "uint256",
          "name": "gameId",
          "type": "uint256"
        }
      ],
      "name": "games",
      "outputs": [
        {
          "internalType": "enum State",
          "name": "state",
          "type": "uint8"
        },
        {
          "internalType": "bool",
          "name": "exist",
          "type": "bool"
        }
      ],
      "stateMutability": "view",
      "type": "function"
    },
    {
      "inputs": [
        {
          "internalType": "uint256",
          "name": "gameId",
          "type": "uint256"
        }
      ],
      "name": "getGameState",
      "outputs": [
        {
          "internalType": "enum State",
          "name": "",
          "type": "uint8"
        }
      ],
      "stateMutability": "view",
      "type": "function"
    },
    {
      "inputs": [
        {
          "internalType": "uint256",
          "name": "gameId",
          "type": "uint256"
        },
        {
          "internalType": "uint256",
          "name": "id",
          "type": "uint256"
        }
      ],
      "name": "getPlayerScore",
      "outputs": [
        {
          "internalType": "uint256",
          "name": "",
          "type": "uint256"
        }
      ],
      "stateMutability": "view",
      "type": "function"
    },
    {
      "inputs": [],
      "name": "state",
      "outputs": [
        {
          "internalType": "enum State",
          "name": "",
          "type": "uint8"
        }
      ],
      "stateMutability": "view",
      "type": "function"
    }
  ],
  "bytecode": "0x6080604052348015600f57600080fd5b5060008060006101000a81548160ff021916908360028111156032576031603b565b5b0217905550606a565b7f4e487b7100000000000000000000000000000000000000000000000000000000600052602160045260246000fd5b610b53806100796000396000f3fe608060405234801561001057600080fd5b50600436106100885760003560e01c8063c19d93fb1161005b578063c19d93fb14610126578063cfe186b214610144578063d56b288914610160578063ffde0c741461016a57610088565b8063117a5b901461008d57806348e837b9146100be57806396325576146100da578063a9656e6f146100f6575b600080fd5b6100a760048036038101906100a2919061078c565b61019a565b6040516100b592919061084b565b60405180910390f35b6100d860048036038101906100d3919061078c565b6101d8565b005b6100f460048036038101906100ef9190610874565b6102f8565b005b610110600480360381019061010b9190610874565b6104a2565b60405161011d91906108c3565b60405180910390f35b61012e61053e565b60405161013b91906108de565b60405180910390f35b61015e6004803603810190610159919061078c565b61054f565b005b61016861061a565b005b610184600480360381019061017f919061078c565b6106ba565b60405161019191906108de565b60405180910390f35b60016020528060005260406000206000915090508060000160009054906101000a900460ff16908060000160019054906101000a900460ff16905082565b600060028111156101ec576101eb6107b9565b5b60008054906101000a900460ff16600281111561020c5761020b6107b9565b5b1461024c576040517f08c379a000000000000000000000000000000000000000000000000000000000815260040161024390610956565b60405180910390fd5b600015156001600083815260200190815260200160002060000160019054906101000a900460ff161515146102b6576040517f08c379a00000000000000000000000000000000000000000000000000000000081526004016102ad906109c2565b60405180910390fd5b60006001600083815260200190815260200160002060000160006101000a81548160ff021916908360028111156102f0576102ef6107b9565b5b021790555050565b600115156001600084815260200190815260200160002060000160019054906101000a900460ff16151514610362576040517f08c379a000000000000000000000000000000000000000000000000000000000815260040161035990610a2e565b60405180910390fd5b60006002811115610376576103756107b9565b5b60008054906101000a900460ff166002811115610396576103956107b9565b5b146103d6576040517f08c379a00000000000000000000000000000000000000000000000000000000081526004016103cd90610956565b60405180910390fd5b600060028111156103ea576103e96107b9565b5b6001600084815260200190815260200160002060000160009054906101000a900460ff1660028111156104205761041f6107b9565b5b14610460576040517f08c379a000000000000000000000000000000000000000000000000000000000815260040161045790610a9a565b60405180910390fd5b6001806000848152602001908152602001600020600101600083815260200190815260200160002060008282546104979190610ae9565b925050819055505050565b6000600115156001600085815260200190815260200160002060000160019054906101000a900460ff1615151461050e576040517f08c379a000000000000000000000000000000000000000000000000000000000815260040161050590610a2e565b60405180910390fd5b60016000848152602001908152602001600020600101600083815260200190815260200160002054905092915050565b60008054906101000a900460ff1681565b60006002811115610563576105626107b9565b5b6001600083815260200190815260200160002060000160009054906101000a900460ff166002811115610599576105986107b9565b5b146105d9576040517f08c379a00000000000000000000000000000000000000000000000000000000081526004016105d090610a9a565b60405180910390fd5b600180600083815260200190815260200160002060000160006101000a81548160ff02191690836002811115610612576106116107b9565b5b021790555050565b6000600281111561062e5761062d6107b9565b5b60008054906101000a900460ff16600281111561064e5761064d6107b9565b5b1461068e576040517f08c379a000000000000000000000000000000000000000000000000000000000815260040161068590610956565b60405180910390fd5b60016000806101000a81548160ff021916908360028111156106b3576106b26107b9565b5b0217905550565b6000600115156001600084815260200190815260200160002060000160019054906101000a900460ff16151514610726576040517f08c379a000000000000000000000000000000000000000000000000000000000815260040161071d90610a2e565b60405180910390fd5b6001600083815260200190815260200160002060000160009054906101000a900460ff169050919050565b600080fd5b6000819050919050565b61076981610756565b811461077457600080fd5b50565b60008135905061078681610760565b92915050565b6000602082840312156107a2576107a1610751565b5b60006107b084828501610777565b91505092915050565b7f4e487b7100000000000000000000000000000000000000000000000000000000600052602160045260246000fd5b600381106107f9576107f86107b9565b5b50565b600081905061080a826107e8565b919050565b600061081a826107fc565b9050919050565b61082a8161080f565b82525050565b60008115159050919050565b61084581610830565b82525050565b60006040820190506108606000830185610821565b61086d602083018461083c565b9392505050565b6000806040838503121561088b5761088a610751565b5b600061089985828601610777565b92505060206108aa85828601610777565b9150509250929050565b6108bd81610756565b82525050565b60006020820190506108d860008301846108b4565b92915050565b60006020820190506108f36000830184610821565b92915050565b600082825260208201905092915050565b7f546f75726e616d656e742069732066696e697368656400000000000000000000600082015250565b60006109406016836108f9565b915061094b8261090a565b602082019050919050565b6000602082019050818103600083015261096f81610933565b9050919050565b7f47616d6520616c72656164792065786973747300000000000000000000000000600082015250565b60006109ac6013836108f9565b91506109b782610976565b602082019050919050565b600060208201905081810360008301526109db8161099f565b9050919050565b7f47616d65206e6f7420666f756e64000000000000000000000000000000000000600082015250565b6000610a18600e836108f9565b9150610a23826109e2565b602082019050919050565b60006020820190508181036000830152610a4781610a0b565b9050919050565b7f47616d652069732066696e697368656400000000000000000000000000000000600082015250565b6000610a846010836108f9565b9150610a8f82610a4e565b602082019050919050565b60006020820190508181036000830152610ab381610a77565b9050919050565b7f4e487b7100000000000000000000000000000000000000000000000000000000600052601160045260246000fd5b6000610af482610756565b9150610aff83610756565b9250828201905080821115610b1757610b16610aba565b5b9291505056fea26469706673582212207bdb6ef2f96cfd365ff9b0d153abf603eea1f5efa7faa17733ac87312071368664736f6c634300081c0033",
  "linkReferences": {},
  "deployedLinkReferences": {}
}