{
  "_format": "hh-sol-artifact-1",
  "contractName": "TournamentFactory",
  "sourceName": "srcs/contracts/TournamentStorage.sol",
  "abi": [
    {
      "anonymous": false,
      "inputs": [
        {
          "indexed": false,
          "internalType": "uint256",
          "name": "tournamentId",
          "type": "uint256"
        },
        {
          "indexed": false,
          "internalType": "address",
          "name": "tournamentAddress",
          "type": "address"
        }
      ],
      "name": "TournamentCreated",
      "type": "event"
    },
    {
      "inputs": [
        {
          "components": [
            {
              "internalType": "uint256",
              "name": "id",
              "type": "uint256"
            },
            {
              "internalType": "uint256",
              "name": "score",
              "type": "uint256"
            }
          ],
          "internalType": "struct IdScorePair[]",
          "name": "pairs",
          "type": "tuple[]"
        },
        {
          "internalType": "uint256",
          "name": "tournamentId",
          "type": "uint256"
        }
      ],
      "name": "deploy",
      "outputs": [],
      "stateMutability": "nonpayable",
      "type": "function"
    },
    {
      "inputs": [
        {
          "internalType": "uint256",
          "name": "tournamentId",
          "type": "uint256"
        }
      ],
      "name": "getTournament",
      "outputs": [
        {
          "internalType": "contract Tournament",
          "name": "",
          "type": "address"
        }
      ],
      "stateMutability": "view",
      "type": "function"
    },
    {
      "inputs": [
        {
          "internalType": "uint256",
          "name": "tournamentId",
          "type": "uint256"
        }
      ],
      "name": "getTournamentAddress",
      "outputs": [
        {
          "internalType": "address",
          "name": "",
          "type": "address"
        }
      ],
      "stateMutability": "view",
      "type": "function"
    },
    {
      "inputs": [
        {
          "internalType": "uint256",
          "name": "",
          "type": "uint256"
        }
      ],
      "name": "tournaments",
      "outputs": [
        {
          "internalType": "contract Tournament",
          "name": "",
          "type": "address"
        }
      ],
      "stateMutability": "view",
      "type": "function"
    }
  ],
  "bytecode": "0x6080604052348015600f57600080fd5b50610b3e8061001f6000396000f3fe608060405234801561001057600080fd5b506004361061004c5760003560e01c80631a5bd7fc1461005157806328c0427c146100815780637503e1b71461009d578063d4715905146100cd575b600080fd5b61006b600480360381019061006691906102eb565b6100fd565b6040516100789190610397565b60405180910390f35b61009b60048036038101906100969190610417565b610139565b005b6100b760048036038101906100b291906102eb565b61022f565b6040516100c49190610397565b60405180910390f35b6100e760048036038101906100e291906102eb565b610262565b6040516100f49190610498565b60405180910390f35b600080600083815260200190815260200160002060009054906101000a900473ffffffffffffffffffffffffffffffffffffffff169050919050565b82826040516101479061029e565b6101529291906105c0565b604051809103906000f08015801561016e573d6000803e3d6000fd5b5060008083815260200190815260200160002060006101000a81548173ffffffffffffffffffffffffffffffffffffffff021916908373ffffffffffffffffffffffffffffffffffffffff1602179055507fb65ca7bac8eb3acf5e536022d4e7cf17c862c1fd36d11b20dd253da7569b671b8160008084815260200190815260200160002060009054906101000a900473ffffffffffffffffffffffffffffffffffffffff166040516102229291906105f3565b60405180910390a1505050565b60006020528060005260406000206000915054906101000a900473ffffffffffffffffffffffffffffffffffffffff1681565b600080600083815260200190815260200160002060009054906101000a900473ffffffffffffffffffffffffffffffffffffffff169050919050565b6104ec8061061d83390190565b600080fd5b600080fd5b6000819050919050565b6102c8816102b5565b81146102d357600080fd5b50565b6000813590506102e5816102bf565b92915050565b600060208284031215610301576103006102ab565b5b600061030f848285016102d6565b91505092915050565b600073ffffffffffffffffffffffffffffffffffffffff82169050919050565b6000819050919050565b600061035d61035861035384610318565b610338565b610318565b9050919050565b600061036f82610342565b9050919050565b600061038182610364565b9050919050565b61039181610376565b82525050565b60006020820190506103ac6000830184610388565b92915050565b600080fd5b600080fd5b600080fd5b60008083601f8401126103d7576103d66103b2565b5b8235905067ffffffffffffffff8111156103f4576103f36103b7565b5b6020830191508360408202830111156104105761040f6103bc565b5b9250929050565b6000806000604084860312156104305761042f6102ab565b5b600084013567ffffffffffffffff81111561044e5761044d6102b0565b5b61045a868287016103c1565b9350935050602061046d868287016102d6565b9150509250925092565b600061048282610318565b9050919050565b61049281610477565b82525050565b60006020820190506104ad6000830184610489565b92915050565b600082825260208201905092915050565b6000819050919050565b60006104dd60208401846102d6565b905092915050565b6104ee816102b5565b82525050565b6040820161050560008301836104ce565b61051260008501826104e5565b5061052060208301836104ce565b61052d60208501826104e5565b50505050565b600061053f83836104f4565b60408301905092915050565b600082905092915050565b6000604082019050919050565b600061056f83856104b3565b935061057a826104c4565b8060005b858110156105b357610590828461054b565b61059a8882610533565b97506105a583610556565b92505060018101905061057e565b5085925050509392505050565b600060208201905081810360008301526105db818486610563565b90509392505050565b6105ed816102b5565b82525050565b600060408201905061060860008301856105e4565b6106156020830184610489565b939250505056fe608060405234801561001057600080fd5b506040516104ec3803806104ec8339818101604052810190610032919061029e565b60005b815181101561009f57818181518110610051576100506102e7565b5b60200260200101516020015160016000848481518110610074576100736102e7565b5b6020026020010151600001518152602001908152602001600020819055508080600101915050610035565b5050610316565b6000604051905090565b600080fd5b600080fd5b600080fd5b6000601f19601f8301169050919050565b7f4e487b7100000000000000000000000000000000000000000000000000000000600052604160045260246000fd5b610108826100bf565b810181811067ffffffffffffffff82111715610127576101266100d0565b5b80604052505050565b600061013a6100a6565b905061014682826100ff565b919050565b600067ffffffffffffffff821115610166576101656100d0565b5b602082029050602081019050919050565b600080fd5b600080fd5b6000819050919050565b61019481610181565b811461019f57600080fd5b50565b6000815190506101b18161018b565b92915050565b6000604082840312156101cd576101cc61017c565b5b6101d76040610130565b905060006101e7848285016101a2565b60008301525060206101fb848285016101a2565b60208301525092915050565b600061021a6102158461014b565b610130565b9050808382526020820190506040840283018581111561023d5761023c610177565b5b835b81811015610266578061025288826101b7565b84526020840193505060408101905061023f565b5050509392505050565b600082601f830112610285576102846100ba565b5b8151610295848260208601610207565b91505092915050565b6000602082840312156102b4576102b36100b0565b5b600082015167ffffffffffffffff8111156102d2576102d16100b5565b5b6102de84828501610270565b91505092915050565b7f4e487b7100000000000000000000000000000000000000000000000000000000600052603260045260246000fd5b6101c7806103256000396000f3fe608060405234801561001057600080fd5b50600436106100415760003560e01c80633d6a71e41461004657806390fdacf4146100645780639a0a445214610094575b600080fd5b61004e6100c4565b60405161005b9190610118565b60405180910390f35b61007e60048036038101906100799190610164565b6100ca565b60405161008b9190610118565b60405180910390f35b6100ae60048036038101906100a99190610164565b6100e7565b6040516100bb9190610118565b60405180910390f35b60005481565b600060016000838152602001908152602001600020549050919050565b60016020528060005260406000206000915090505481565b6000819050919050565b610112816100ff565b82525050565b600060208201905061012d6000830184610109565b92915050565b600080fd5b610141816100ff565b811461014c57600080fd5b50565b60008135905061015e81610138565b92915050565b60006020828403121561017a57610179610133565b5b60006101888482850161014f565b9150509291505056fea26469706673582212209bd9df1ab736a0a1d3acc1c9d4d68d9248b67711693cddbaaf9fac863c197d2c64736f6c634300081c0033a26469706673582212203be79b54e13b515b893376ed7e0bdc0858a1c72c34fa1fd9b4625e30bce6e91264736f6c634300081c0033",
  "linkReferences": {},
  "deployedLinkReferences": {}
}