{
  "_format": "hh-sol-artifact-1",
  "contractName": "Tournament",
  "sourceName": "srcs/contracts/TournamentStorage.sol",
  "abi": [
    {
      "inputs": [
        {
          "components": [
            {
              "internalType": "uint256",
              "name": "id",
              "type": "uint256"
            },
            {
              "internalType": "uint256",
              "name": "score",
              "type": "uint256"
            }
          ],
          "internalType": "struct IdScorePair[]",
          "name": "pairs",
          "type": "tuple[]"
        }
      ],
      "stateMutability": "nonpayable",
      "type": "constructor"
    },
    {
      "inputs": [],
      "name": "endedAt",
      "outputs": [
        {
          "internalType": "uint256",
          "name": "",
          "type": "uint256"
        }
      ],
      "stateMutability": "view",
      "type": "function"
    },
    {
      "inputs": [
        {
          "internalType": "uint256",
          "name": "id",
          "type": "uint256"
        }
      ],
      "name": "playersScores",
      "outputs": [
        {
          "internalType": "uint256",
          "name": "score",
          "type": "uint256"
        }
      ],
      "stateMutability": "view",
      "type": "function"
    }
  ],
  "bytecode": "0x608060405234801561001057600080fd5b506040516104943803806104948339818101604052810190610032919061029e565b60005b815181101561009f57818181518110610051576100506102e7565b5b60200260200101516020015160016000848481518110610074576100736102e7565b5b6020026020010151600001518152602001908152602001600020819055508080600101915050610035565b5050610316565b6000604051905090565b600080fd5b600080fd5b600080fd5b6000601f19601f8301169050919050565b7f4e487b7100000000000000000000000000000000000000000000000000000000600052604160045260246000fd5b610108826100bf565b810181811067ffffffffffffffff82111715610127576101266100d0565b5b80604052505050565b600061013a6100a6565b905061014682826100ff565b919050565b600067ffffffffffffffff821115610166576101656100d0565b5b602082029050602081019050919050565b600080fd5b600080fd5b6000819050919050565b61019481610181565b811461019f57600080fd5b50565b6000815190506101b18161018b565b92915050565b6000604082840312156101cd576101cc61017c565b5b6101d76040610130565b905060006101e7848285016101a2565b60008301525060206101fb848285016101a2565b60208301525092915050565b600061021a6102158461014b565b610130565b9050808382526020820190506040840283018581111561023d5761023c610177565b5b835b81811015610266578061025288826101b7565b84526020840193505060408101905061023f565b5050509392505050565b600082601f830112610285576102846100ba565b5b8151610295848260208601610207565b91505092915050565b6000602082840312156102b4576102b36100b0565b5b600082015167ffffffffffffffff8111156102d2576102d16100b5565b5b6102de84828501610270565b91505092915050565b7f4e487b7100000000000000000000000000000000000000000000000000000000600052603260045260246000fd5b61016f806103256000396000f3fe608060405234801561001057600080fd5b50600436106100365760003560e01c80633d6a71e41461003b5780639a0a445214610059575b600080fd5b610043610089565b60405161005091906100c0565b60405180910390f35b610073600480360381019061006e919061010c565b61008f565b60405161008091906100c0565b60405180910390f35b60005481565b60016020528060005260406000206000915090505481565b6000819050919050565b6100ba816100a7565b82525050565b60006020820190506100d560008301846100b1565b92915050565b600080fd5b6100e9816100a7565b81146100f457600080fd5b50565b600081359050610106816100e0565b92915050565b600060208284031215610122576101216100db565b5b6000610130848285016100f7565b9150509291505056fea2646970667358221220ed9ecb7eed6d952c9b0bd5237fa49384dba2071da65e516ecf2561b57f6dff2264736f6c634300081c0033",
  "linkReferences": {},
  "deployedLinkReferences": {}
}