{
  "_format": "hh-sol-artifact-1",
  "contractName": "TournamentFactory",
  "sourceName": "srcs/contracts/TournamentStorage.sol",
  "abi": [
    {
      "inputs": [],
      "stateMutability": "nonpayable",
      "type": "constructor"
    },
    {
      "inputs": [
        {
          "components": [
            {
              "internalType": "uint256",
              "name": "id",
              "type": "uint256"
            },
            {
              "internalType": "uint256",
              "name": "score",
              "type": "uint256"
            }
          ],
          "internalType": "struct IdScorePair[]",
          "name": "pairs",
          "type": "tuple[]"
        },
        {
          "internalType": "uint256",
          "name": "tournamentId",
          "type": "uint256"
        }
      ],
      "name": "deploy",
      "outputs": [
        {
          "internalType": "contract Tournament",
          "name": "",
          "type": "address"
        }
      ],
      "stateMutability": "nonpayable",
      "type": "function"
    },
    {
      "inputs": [
        {
          "internalType": "uint256",
          "name": "",
          "type": "uint256"
        }
      ],
      "name": "tournaments",
      "outputs": [
        {
          "internalType": "contract Tournament",
          "name": "",
          "type": "address"
        }
      ],
      "stateMutability": "view",
      "type": "function"
    }
  ],
  "bytecode": "0x6080604052348015600f57600080fd5b506109668061001f6000396000f3fe608060405234801561001057600080fd5b50600436106100365760003560e01c806328c0427c1461003b5780637503e1b71461006b575b600080fd5b61005560048036038101906100509190610244565b61009b565b6040516100629190610323565b60405180910390f35b6100856004803603810190610080919061033e565b61015f565b6040516100929190610323565b60405180910390f35b600083836040516100ab90610192565b6100b6929190610478565b604051809103906000f0801580156100d2573d6000803e3d6000fd5b5060008084815260200190815260200160002060006101000a81548173ffffffffffffffffffffffffffffffffffffffff021916908373ffffffffffffffffffffffffffffffffffffffff16021790555060008083815260200190815260200160002060009054906101000a900473ffffffffffffffffffffffffffffffffffffffff1690509392505050565b60006020528060005260406000206000915054906101000a900473ffffffffffffffffffffffffffffffffffffffff1681565b6104948061049d83390190565b600080fd5b600080fd5b600080fd5b600080fd5b600080fd5b60008083601f8401126101ce576101cd6101a9565b5b8235905067ffffffffffffffff8111156101eb576101ea6101ae565b5b602083019150836040820283011115610207576102066101b3565b5b9250929050565b6000819050919050565b6102218161020e565b811461022c57600080fd5b50565b60008135905061023e81610218565b92915050565b60008060006040848603121561025d5761025c61019f565b5b600084013567ffffffffffffffff81111561027b5761027a6101a4565b5b610287868287016101b8565b9350935050602061029a8682870161022f565b9150509250925092565b600073ffffffffffffffffffffffffffffffffffffffff82169050919050565b6000819050919050565b60006102e96102e46102df846102a4565b6102c4565b6102a4565b9050919050565b60006102fb826102ce565b9050919050565b600061030d826102f0565b9050919050565b61031d81610302565b82525050565b60006020820190506103386000830184610314565b92915050565b6000602082840312156103545761035361019f565b5b60006103628482850161022f565b91505092915050565b600082825260208201905092915050565b6000819050919050565b6000610395602084018461022f565b905092915050565b6103a68161020e565b82525050565b604082016103bd6000830183610386565b6103ca600085018261039d565b506103d86020830183610386565b6103e5602085018261039d565b50505050565b60006103f783836103ac565b60408301905092915050565b600082905092915050565b6000604082019050919050565b6000610427838561036b565b93506104328261037c565b8060005b8581101561046b576104488284610403565b61045288826103eb565b975061045d8361040e565b925050600181019050610436565b5085925050509392505050565b6000602082019050818103600083015261049381848661041b565b9050939250505056fe608060405234801561001057600080fd5b506040516104943803806104948339818101604052810190610032919061029e565b60005b815181101561009f57818181518110610051576100506102e7565b5b60200260200101516020015160016000848481518110610074576100736102e7565b5b6020026020010151600001518152602001908152602001600020819055508080600101915050610035565b5050610316565b6000604051905090565b600080fd5b600080fd5b600080fd5b6000601f19601f8301169050919050565b7f4e487b7100000000000000000000000000000000000000000000000000000000600052604160045260246000fd5b610108826100bf565b810181811067ffffffffffffffff82111715610127576101266100d0565b5b80604052505050565b600061013a6100a6565b905061014682826100ff565b919050565b600067ffffffffffffffff821115610166576101656100d0565b5b602082029050602081019050919050565b600080fd5b600080fd5b6000819050919050565b61019481610181565b811461019f57600080fd5b50565b6000815190506101b18161018b565b92915050565b6000604082840312156101cd576101cc61017c565b5b6101d76040610130565b905060006101e7848285016101a2565b60008301525060206101fb848285016101a2565b60208301525092915050565b600061021a6102158461014b565b610130565b9050808382526020820190506040840283018581111561023d5761023c610177565b5b835b81811015610266578061025288826101b7565b84526020840193505060408101905061023f565b5050509392505050565b600082601f830112610285576102846100ba565b5b8151610295848260208601610207565b91505092915050565b6000602082840312156102b4576102b36100b0565b5b600082015167ffffffffffffffff8111156102d2576102d16100b5565b5b6102de84828501610270565b91505092915050565b7f4e487b7100000000000000000000000000000000000000000000000000000000600052603260045260246000fd5b61016f806103256000396000f3fe608060405234801561001057600080fd5b50600436106100365760003560e01c80633d6a71e41461003b5780639a0a445214610059575b600080fd5b610043610089565b60405161005091906100c0565b60405180910390f35b610073600480360381019061006e919061010c565b61008f565b60405161008091906100c0565b60405180910390f35b60005481565b60016020528060005260406000206000915090505481565b6000819050919050565b6100ba816100a7565b82525050565b60006020820190506100d560008301846100b1565b92915050565b600080fd5b6100e9816100a7565b81146100f457600080fd5b50565b600081359050610106816100e0565b92915050565b600060208284031215610122576101216100db565b5b6000610130848285016100f7565b9150509291505056fea2646970667358221220ed9ecb7eed6d952c9b0bd5237fa49384dba2071da65e516ecf2561b57f6dff2264736f6c634300081c0033a2646970667358221220923c25ad3d56d05a26c03d4b9677a139af39bf463cc372a062b8b881dc3f14f964736f6c634300081c0033",
  "linkReferences": {},
  "deployedLinkReferences": {}
}